{
  "_format": "hh-sol-artifact-1",
  "contractName": "Marketplace",
  "sourceName": "contracts/Marketplace.sol",
  "abi": [
    {
      "inputs": [],
      "stateMutability": "nonpayable",
      "type": "constructor"
    },
    {
      "inputs": [
        {
          "internalType": "address",
          "name": "owner",
          "type": "address"
        }
      ],
      "name": "OwnableInvalidOwner",
      "type": "error"
    },
    {
      "inputs": [
        {
          "internalType": "address",
          "name": "account",
          "type": "address"
        }
      ],
      "name": "OwnableUnauthorizedAccount",
      "type": "error"
    },
    {
      "inputs": [],
      "name": "ReentrancyGuardReentrantCall",
      "type": "error"
    },
    {
      "anonymous": false,
      "inputs": [
        {
          "indexed": true,
          "internalType": "uint256",
          "name": "listingId",
          "type": "uint256"
        },
        {
          "indexed": true,
          "internalType": "address",
          "name": "seller",
          "type": "address"
        },
        {
          "indexed": true,
          "internalType": "address",
          "name": "nftContract",
          "type": "address"
        },
        {
          "indexed": false,
          "internalType": "uint256",
          "name": "tokenId",
          "type": "uint256"
        },
        {
          "indexed": false,
          "internalType": "uint256",
          "name": "price",
          "type": "uint256"
        }
      ],
      "name": "ItemListed",
      "type": "event"
    },
    {
      "anonymous": false,
      "inputs": [
        {
          "indexed": true,
          "internalType": "uint256",
          "name": "listingId",
          "type": "uint256"
        },
        {
          "indexed": true,
          "internalType": "address",
          "name": "buyer",
          "type": "address"
        },
        {
          "indexed": true,
          "internalType": "address",
          "name": "seller",
          "type": "address"
        },
        {
          "indexed": false,
          "internalType": "uint256",
          "name": "price",
          "type": "uint256"
        }
      ],
      "name": "ItemSold",
      "type": "event"
    },
    {
      "anonymous": false,
      "inputs": [
        {
          "indexed": true,
          "internalType": "uint256",
          "name": "listingId",
          "type": "uint256"
        }
      ],
      "name": "ListingCancelled",
      "type": "event"
    },
    {
      "anonymous": false,
      "inputs": [
        {
          "indexed": true,
          "internalType": "uint256",
          "name": "listingId",
          "type": "uint256"
        },
        {
          "indexed": false,
          "internalType": "uint256",
          "name": "oldPrice",
          "type": "uint256"
        },
        {
          "indexed": false,
          "internalType": "uint256",
          "name": "newPrice",
          "type": "uint256"
        }
      ],
      "name": "ListingPriceUpdated",
      "type": "event"
    },
    {
      "anonymous": false,
      "inputs": [
        {
          "indexed": false,
          "internalType": "uint256",
          "name": "newFee",
          "type": "uint256"
        }
      ],
      "name": "MarketplaceFeeUpdated",
      "type": "event"
    },
    {
      "anonymous": false,
      "inputs": [
        {
          "indexed": true,
          "internalType": "address",
          "name": "previousOwner",
          "type": "address"
        },
        {
          "indexed": true,
          "internalType": "address",
          "name": "newOwner",
          "type": "address"
        }
      ],
      "name": "OwnershipTransferred",
      "type": "event"
    },
    {
      "anonymous": false,
      "inputs": [
        {
          "indexed": true,
          "internalType": "uint256",
          "name": "listingId",
          "type": "uint256"
        },
        {
          "indexed": true,
          "internalType": "address",
          "name": "receiver",
          "type": "address"
        },
        {
          "indexed": false,
          "internalType": "uint256",
          "name": "amount",
          "type": "uint256"
        }
      ],
      "name": "RoyaltyPaid",
      "type": "event"
    },
    {
      "inputs": [
        {
          "internalType": "uint256",
          "name": "_listingId",
          "type": "uint256"
        }
      ],
      "name": "buyItem",
      "outputs": [],
      "stateMutability": "payable",
      "type": "function"
    },
    {
      "inputs": [
        {
          "internalType": "uint256",
          "name": "_listingId",
          "type": "uint256"
        }
      ],
      "name": "cancelListing",
      "outputs": [],
      "stateMutability": "nonpayable",
      "type": "function"
    },
    {
      "inputs": [
        {
          "internalType": "uint256",
          "name": "_offset",
          "type": "uint256"
        },
        {
          "internalType": "uint256",
          "name": "_limit",
          "type": "uint256"
        }
      ],
      "name": "getActiveListings",
      "outputs": [
        {
          "components": [
            {
              "internalType": "address",
              "name": "nftContract",
              "type": "address"
            },
            {
              "internalType": "uint256",
              "name": "tokenId",
              "type": "uint256"
            },
            {
              "internalType": "address",
              "name": "seller",
              "type": "address"
            },
            {
              "internalType": "uint256",
              "name": "price",
              "type": "uint256"
            },
            {
              "internalType": "bool",
              "name": "active",
              "type": "bool"
            }
          ],
          "internalType": "struct Marketplace.Listing[]",
          "name": "",
          "type": "tuple[]"
        }
      ],
      "stateMutability": "view",
      "type": "function"
    },
    {
      "inputs": [
        {
          "internalType": "uint256",
          "name": "_listingId",
          "type": "uint256"
        }
      ],
      "name": "getListing",
      "outputs": [
        {
          "components": [
            {
              "internalType": "address",
              "name": "nftContract",
              "type": "address"
            },
            {
              "internalType": "uint256",
              "name": "tokenId",
              "type": "uint256"
            },
            {
              "internalType": "address",
              "name": "seller",
              "type": "address"
            },
            {
              "internalType": "uint256",
              "name": "price",
              "type": "uint256"
            },
            {
              "internalType": "bool",
              "name": "active",
              "type": "bool"
            }
          ],
          "internalType": "struct Marketplace.Listing",
          "name": "",
          "type": "tuple"
        }
      ],
      "stateMutability": "view",
      "type": "function"
    },
    {
      "inputs": [
        {
          "internalType": "address",
          "name": "_seller",
          "type": "address"
        }
      ],
      "name": "getSellerListings",
      "outputs": [
        {
          "internalType": "uint256[]",
          "name": "",
          "type": "uint256[]"
        }
      ],
      "stateMutability": "view",
      "type": "function"
    },
    {
      "inputs": [
        {
          "internalType": "address",
          "name": "_nftContract",
          "type": "address"
        },
        {
          "internalType": "uint256",
          "name": "_tokenId",
          "type": "uint256"
        }
      ],
      "name": "isNFTListed",
      "outputs": [
        {
          "internalType": "bool",
          "name": "isListed",
          "type": "bool"
        },
        {
          "internalType": "uint256",
          "name": "listingId",
          "type": "uint256"
        }
      ],
      "stateMutability": "view",
      "type": "function"
    },
    {
      "inputs": [
        {
          "internalType": "address",
          "name": "_nftContract",
          "type": "address"
        },
        {
          "internalType": "uint256",
          "name": "_tokenId",
          "type": "uint256"
        },
        {
          "internalType": "uint256",
          "name": "_price",
          "type": "uint256"
        }
      ],
      "name": "listItem",
      "outputs": [],
      "stateMutability": "nonpayable",
      "type": "function"
    },
    {
      "inputs": [],
      "name": "listingCounter",
      "outputs": [
        {
          "internalType": "uint256",
          "name": "",
          "type": "uint256"
        }
      ],
      "stateMutability": "view",
      "type": "function"
    },
    {
      "inputs": [
        {
          "internalType": "uint256",
          "name": "",
          "type": "uint256"
        }
      ],
      "name": "listings",
      "outputs": [
        {
          "internalType": "address",
          "name": "nftContract",
          "type": "address"
        },
        {
          "internalType": "uint256",
          "name": "tokenId",
          "type": "uint256"
        },
        {
          "internalType": "address",
          "name": "seller",
          "type": "address"
        },
        {
          "internalType": "uint256",
          "name": "price",
          "type": "uint256"
        },
        {
          "internalType": "bool",
          "name": "active",
          "type": "bool"
        }
      ],
      "stateMutability": "view",
      "type": "function"
    },
    {
      "inputs": [],
      "name": "marketplaceFee",
      "outputs": [
        {
          "internalType": "uint256",
          "name": "",
          "type": "uint256"
        }
      ],
      "stateMutability": "view",
      "type": "function"
    },
    {
      "inputs": [],
      "name": "owner",
      "outputs": [
        {
          "internalType": "address",
          "name": "",
          "type": "address"
        }
      ],
      "stateMutability": "view",
      "type": "function"
    },
    {
      "inputs": [],
      "name": "renounceOwnership",
      "outputs": [],
      "stateMutability": "nonpayable",
      "type": "function"
    },
    {
      "inputs": [
        {
          "internalType": "address",
          "name": "",
          "type": "address"
        },
        {
          "internalType": "uint256",
          "name": "",
          "type": "uint256"
        }
      ],
      "name": "sellerListings",
      "outputs": [
        {
          "internalType": "uint256",
          "name": "",
          "type": "uint256"
        }
      ],
      "stateMutability": "view",
      "type": "function"
    },
    {
      "inputs": [
        {
          "internalType": "address",
          "name": "newOwner",
          "type": "address"
        }
      ],
      "name": "transferOwnership",
      "outputs": [],
      "stateMutability": "nonpayable",
      "type": "function"
    },
    {
      "inputs": [
        {
          "internalType": "uint256",
          "name": "_listingId",
          "type": "uint256"
        },
        {
          "internalType": "uint256",
          "name": "_newPrice",
          "type": "uint256"
        }
      ],
      "name": "updateListingPrice",
      "outputs": [],
      "stateMutability": "nonpayable",
      "type": "function"
    },
    {
      "inputs": [
        {
          "internalType": "uint256",
          "name": "_newFee",
          "type": "uint256"
        }
      ],
      "name": "updateMarketplaceFee",
      "outputs": [],
      "stateMutability": "nonpayable",
      "type": "function"
    },
    {
      "inputs": [],
      "name": "withdrawFees",
      "outputs": [],
      "stateMutability": "nonpayable",
      "type": "function"
    }
  ],
  "bytecode": "0x608060405260fa60025534801561001557600080fd5b506001600055338061004157604051631e4fbdf760e01b81526000600482015260240160405180910390fd5b61004a81610050565b506100a2565b600180546001600160a01b038381166001600160a01b0319831681179093556040519116919082907f8be0079c531659141344cd1fd0a4f28419497f9722a3daafe3b4186f6b6457e090600090a35050565b611991806100b16000396000f3fe6080604052600436106100fe5760003560e01c8063715018a611610095578063c460494311610064578063c460494314610324578063de74e57b14610344578063e7fb74c7146103d8578063f2fde38b146103eb578063fab25bb21461040b57600080fd5b8063715018a61461029a57806389bfd38f146102af5780638da5cb5b146102cf578063c128b231146102f757600080fd5b8063476343ee116100d1578063476343ee1461022c5780635f42da09146102415780636a1669641461026e5780636c2c9c7d1461028457600080fd5b8063054564f014610103578063107a274a14610136578063305a67a8146101ea57806330eb80cd1461020c575b600080fd5b34801561010f57600080fd5b5061012361011e3660046116a3565b610442565b6040519081526020015b60405180910390f35b34801561014257600080fd5b506101dd6101513660046116cf565b6040805160a08101825260008082526020820181905291810182905260608101829052608081019190915250600090815260036020818152604092839020835160a08101855281546001600160a01b03908116825260018301549382019390935260028201549092169382019390935290820154606082015260049091015460ff161515608082015290565b60405161012d9190611725565b3480156101f657600080fd5b5061020a6102053660046116cf565b610473565b005b34801561021857600080fd5b5061020a6102273660046116cf565b6105b4565b34801561023857600080fd5b5061020a61063c565b34801561024d57600080fd5b5061026161025c366004611733565b610730565b60405161012d9190611757565b34801561027a57600080fd5b5061012360025481565b34801561029057600080fd5b5061012360045481565b3480156102a657600080fd5b5061020a61079c565b3480156102bb57600080fd5b5061020a6102ca36600461179b565b6107b0565b3480156102db57600080fd5b506001546040516001600160a01b03909116815260200161012d565b34801561030357600080fd5b506103176103123660046117d0565b610c7a565b60405161012d91906117f2565b34801561033057600080fd5b5061020a61033f3660046117d0565b610e5f565b34801561035057600080fd5b5061039f61035f3660046116cf565b6003602081905260009182526040909120805460018201546002830154938301546004909301546001600160a01b03928316949193919092169160ff1685565b604080516001600160a01b039687168152602081019590955292909416918301919091526060820152901515608082015260a00161012d565b61020a6103e63660046116cf565b610fd1565b3480156103f757600080fd5b5061020a610406366004611733565b611544565b34801561041757600080fd5b5061042b6104263660046116a3565b61157f565b60408051921515835260208301919091520161012d565b6005602052816000526040600020818154811061045e57600080fd5b90600052602060002001600091509150505481565b61047b6115e5565b600081815260036020526040902060028101546001600160a01b03163314806104bd5750336104b26001546001600160a01b031690565b6001600160a01b0316145b6104fe5760405162461bcd60e51b815260206004820152600d60248201526c53656d207065726d697373616f60981b60448201526064015b60405180910390fd5b600481015460ff166105485760405162461bcd60e51b81526020600482015260136024820152724c6973746167656d206a6120696e617469766160681b60448201526064016104f5565b60048101805460ff1916905580546001600160a01b03166000908152600660209081526040808320600185015484529091528082208290555183917f411aee90354c51b1b04cd563fcab2617142a9d50da19232d888547c8a1b7fd8a91a2506105b16001600055565b50565b6105bc61160f565b6103e88111156106015760405162461bcd60e51b815260206004820152601060248201526f54617861206d6178696d613a2031302560801b60448201526064016104f5565b60028190556040518181527fe18aa129833f655a8166b6185277fee7a53f67e46fd32329bc2fc2ac21274d559060200160405180910390a150565b61064461160f565b47806106895760405162461bcd60e51b815260206004820152601460248201527329b2b69039b0b63237903830b9309039b0b1b0b960611b60448201526064016104f5565b600061069d6001546001600160a01b031690565b6001600160a01b03168260405160006040518083038185875af1925050503d80600081146106e7576040519150601f19603f3d011682016040523d82523d6000602084013e6106ec565b606091505b505090508061072c5760405162461bcd60e51b815260206004820152600c60248201526b53617175652066616c686f7560a01b60448201526064016104f5565b5050565b6001600160a01b03811660009081526005602090815260409182902080548351818402810184019094528084526060939283018282801561079057602002820191906000526020600020905b81548152602001906001019080831161077c575b50505050509050919050565b6107a461160f565b6107ae600061163c565b565b6107b86115e5565b600081116108085760405162461bcd60e51b815260206004820152601d60248201527f507265636f206465766520736572206d61696f7220717565207a65726f00000060448201526064016104f5565b6001600160a01b0383166108565760405162461bcd60e51b8152602060048201526015602482015274456e64657265636f204e465420696e76616c69646f60581b60448201526064016104f5565b6001600160a01b0383166000908152600660209081526040808320858452909152902054801561092057600060038161089060018561184a565b81526020810191909152604001600020600481015490915060ff161561091e5760405162461bcd60e51b815260206004820152603f60248201527f4e4654206a612065737461206c69737461646f2e20557365207570646174654c60448201527f697374696e6750726963652070617261206d75646172206f20707265636f2e0060648201526084016104f5565b505b6040516331a9108f60e11b815260048101849052849033906001600160a01b03831690636352211e90602401602060405180830381865afa158015610969573d6000803e3d6000fd5b505050506040513d601f19601f8201168201806040525081019061098d919061185d565b6001600160a01b0316146109e35760405162461bcd60e51b815260206004820152601b60248201527f566f6365206e616f2065206f20646f6e6f206465737465204e4654000000000060448201526064016104f5565b60405163e985e9c560e01b81523360048201523060248201526001600160a01b0382169063e985e9c590604401602060405180830381865afa158015610a2d573d6000803e3d6000fd5b505050506040513d601f19601f82011682018060405250810190610a51919061187a565b80610acd575060405163020604bf60e21b81526004810185905230906001600160a01b0383169063081812fc90602401602060405180830381865afa158015610a9e573d6000803e3d6000fd5b505050506040513d601f19601f82011682018060405250810190610ac2919061185d565b6001600160a01b0316145b610b2e5760405162461bcd60e51b815260206004820152602c60248201527f4d61726b6574706c616365206e616f206170726f7661646f207061726120747260448201526b185b9cd9995c9a5c8813919560a21b60648201526084016104f5565b6004805460009182610b3f8361189c565b909155506040805160a0810182526001600160a01b03898116825260208083018a815233848601818152606086018c815260016080880181815260008b815260038089528b82209a518b546001600160a01b0319908116918c16919091178c5597518b850155945160028b01805490981699169890981790955590519187019190915591516004909501805460ff1916951515959095179094559282526005815292812080548084018255908252929020909101829055909150610c049082906118b5565b6001600160a01b03871660008181526006602090815260408083208a84528252918290209390935580518881529283018790529091339184917f424b3284a7958bb7965c27ca0b2a8b30ce2a56ba954533df15e6bded1b608ed7910160405180910390a4505050610c756001600055565b505050565b60606000805b600454811015610cc45760008181526003602052604090206004015460ff1615610cb25781610cae8161189c565b9250505b80610cbc8161189c565b915050610c80565b508281610cd182876118b5565b1115610cf257848211610ce5576000610cef565b610cef858361184a565b90505b60008167ffffffffffffffff811115610d0d57610d0d6118c8565b604051908082528060200260200182016040528015610d6657816020015b6040805160a081018252600080825260208083018290529282018190526060820181905260808201528252600019909201910181610d2b5790505b50905060008060005b60045481108015610d7f57508482105b15610e505760008181526003602052604090206004015460ff1615610e3e57888310610e3057600081815260036020818152604092839020835160a08101855281546001600160a01b03908116825260018301549382019390935260028201549092169382019390935290820154606082015260049091015460ff16151560808201528451859084908110610e1657610e166118de565b60200260200101819052508180610e2c9061189c565b9250505b82610e3a8161189c565b9350505b80610e488161189c565b915050610d6f565b50919450505050505b92915050565b610e676115e5565b600082815260036020526040902060028101546001600160a01b03163314610ee25760405162461bcd60e51b815260206004820152602860248201527f4170656e6173206f2076656e6465646f7220706f646520617475616c697a6172604482015267206f20707265636f60c01b60648201526084016104f5565b600481015460ff16610f305760405162461bcd60e51b81526020600482015260176024820152764c6973746167656d206e616f206573746120617469766160481b60448201526064016104f5565b60008211610f805760405162461bcd60e51b815260206004820152601d60248201527f507265636f206465766520736572206d61696f7220717565207a65726f00000060448201526064016104f5565b60038101805490839055604080518281526020810185905285917f36cfe22dfcf2d3781d9de6b307d67a5431b45492dad5e70e53dd4af34c25b849910160405180910390a2505061072c6001600055565b610fd96115e5565b6000818152600360205260409020600481015460ff166110355760405162461bcd60e51b81526020600482015260176024820152764c6973746167656d206e616f206573746120617469766160481b60448201526064016104f5565b806003015434101561107e5760405162461bcd60e51b815260206004820152601260248201527156616c6f7220696e737566696369656e746560701b60448201526064016104f5565b60028101546001600160a01b031633036110ed5760405162461bcd60e51b815260206004820152602a60248201527f56656e6465646f72206e616f20706f646520636f6d70726172207365752070726044820152696f7072696f206974656d60b01b60648201526084016104f5565b60048101805460ff1916905560025460038201546000916127109161111291906118f4565b61111c919061190b565b90506000818360030154611130919061184a565b83546001850154600386015460405163152a902d60e11b815293945060009384936001600160a01b031692632a55205a9261117692600401918252602082015260400190565b6040805180830381865afa9250505080156111ae575060408051601f3d908101601f191682019092526111ab9181019061192d565b60015b156111f2576001600160a01b038216158015906111cb5750600081115b80156111d75750848111155b156111ef579250905080826111ec818661184a565b94505b50505b845460028601546001870154604051632142170760e11b81526001600160a01b03928316600482015233602482015260448101919091529116906342842e0e90606401600060405180830381600087803b15801561124f57600080fd5b505af1158015611263573d6000803e3d6000fd5b5050505060008211801561127f57506001600160a01b03811615155b1561136d576000816001600160a01b03168360405160006040518083038185875af1925050503d80600081146112d1576040519150601f19603f3d011682016040523d82523d6000602084013e6112d6565b606091505b50509050806113275760405162461bcd60e51b815260206004820152601f60248201527f5472616e73666572656e63696120646520726f79616c74792066616c686f750060448201526064016104f5565b816001600160a01b0316877ff670029fc6f5302baba881b4ae845d1453acdf752b4c19ed81fe0fa6a686409b8560405161136391815260200190565b60405180910390a3505b60028501546040516000916001600160a01b03169085908381818185875af1925050503d80600081146113bc576040519150601f19603f3d011682016040523d82523d6000602084013e6113c1565b606091505b505090508061141d5760405162461bcd60e51b815260206004820152602260248201527f5472616e73666572656e63696120706172612076656e6465646f722066616c686044820152616f7560f01b60648201526084016104f5565b85600301543411156114c4576003860154600090339061143d903461184a565b604051600081818185875af1925050503d8060008114611479576040519150601f19603f3d011682016040523d82523d6000602084013e61147e565b606091505b50509050806114c25760405162461bcd60e51b815260206004820152601060248201526f5265656d626f6c736f2066616c686f7560801b60448201526064016104f5565b505b85546001600160a01b03908116600090815260066020908152604080832060018b01548452825280832092909255600289015460038a015492519283529092169133918a917f04ddd54c6b746e69ba87f862311f7670bd1d7276846778ac81cd38747b27a746910160405180910390a45050505050506105b16001600055565b61154c61160f565b6001600160a01b03811661157657604051631e4fbdf760e01b8152600060048201526024016104f5565b6105b18161163c565b6001600160a01b0382166000908152600660209081526040808320848452909152812054819080156115d4576115b660018261184a565b60008181526003602052604090206004015460ff16935091506115dd565b60009250600091505b509250929050565b60026000540361160857604051633ee5aeb560e01b815260040160405180910390fd5b6002600055565b6001546001600160a01b031633146107ae5760405163118cdaa760e01b81523360048201526024016104f5565b600180546001600160a01b038381166001600160a01b0319831681179093556040519116919082907f8be0079c531659141344cd1fd0a4f28419497f9722a3daafe3b4186f6b6457e090600090a35050565b6001600160a01b03811681146105b157600080fd5b600080604083850312156116b657600080fd5b82356116c18161168e565b946020939093013593505050565b6000602082840312156116e157600080fd5b5035919050565b80516001600160a01b0390811683526020808301519084015260408083015190911690830152606080820151908301526080908101511515910152565b60a08101610e5982846116e8565b60006020828403121561174557600080fd5b81356117508161168e565b9392505050565b6020808252825182820181905260009190848201906040850190845b8181101561178f57835183529284019291840191600101611773565b50909695505050505050565b6000806000606084860312156117b057600080fd5b83356117bb8161168e565b95602085013595506040909401359392505050565b600080604083850312156117e357600080fd5b50508035926020909101359150565b6020808252825182820181905260009190848201906040850190845b8181101561178f576118218385516116e8565b9284019260a0929092019160010161180e565b634e487b7160e01b600052601160045260246000fd5b81810381811115610e5957610e59611834565b60006020828403121561186f57600080fd5b81516117508161168e565b60006020828403121561188c57600080fd5b8151801515811461175057600080fd5b6000600182016118ae576118ae611834565b5060010190565b80820180821115610e5957610e59611834565b634e487b7160e01b600052604160045260246000fd5b634e487b7160e01b600052603260045260246000fd5b8082028115828204841417610e5957610e59611834565b60008261192857634e487b7160e01b600052601260045260246000fd5b500490565b6000806040838503121561194057600080fd5b825161194b8161168e565b602093909301519294929350505056fea2646970667358221220df7083a778e3be43aa7d78be554e1433795245eeeab141384639936da7643e8164736f6c63430008140033",
  "linkReferences": {},
  "deployedLinkReferences": {}
}